{
  "_format": "hh-sol-artifact-1",
  "contractName": "Marketplace",
  "sourceName": "contracts/Marketplace.sol",
  "abi": [
    {
      "anonymous": false,
      "inputs": [
        {
          "indexed": false,
          "internalType": "uint256",
          "name": "id",
          "type": "uint256"
        },
        {
          "indexed": false,
          "internalType": "string",
          "name": "name",
          "type": "string"
        },
        {
          "indexed": false,
          "internalType": "uint256",
          "name": "price",
          "type": "uint256"
        },
        {
          "indexed": false,
          "internalType": "address",
          "name": "seller",
          "type": "address"
        }
      ],
      "name": "ProductListed",
      "type": "event"
    },
    {
      "anonymous": false,
      "inputs": [
        {
          "indexed": false,
          "internalType": "uint256",
          "name": "id",
          "type": "uint256"
        },
        {
          "indexed": false,
          "internalType": "address",
          "name": "buyer",
          "type": "address"
        }
      ],
      "name": "ProductPurchased",
      "type": "event"
    },
    {
      "inputs": [
        {
          "internalType": "string",
          "name": "_name",
          "type": "string"
        },
        {
          "internalType": "uint256",
          "name": "_price",
          "type": "uint256"
        }
      ],
      "name": "listProduct",
      "outputs": [],
      "stateMutability": "nonpayable",
      "type": "function"
    },
    {
      "inputs": [],
      "name": "productCount",
      "outputs": [
        {
          "internalType": "uint256",
          "name": "",
          "type": "uint256"
        }
      ],
      "stateMutability": "view",
      "type": "function"
    },
    {
      "inputs": [
        {
          "internalType": "uint256",
          "name": "",
          "type": "uint256"
        }
      ],
      "name": "products",
      "outputs": [
        {
          "internalType": "uint256",
          "name": "id",
          "type": "uint256"
        },
        {
          "internalType": "string",
          "name": "name",
          "type": "string"
        },
        {
          "internalType": "uint256",
          "name": "price",
          "type": "uint256"
        },
        {
          "internalType": "address payable",
          "name": "seller",
          "type": "address"
        },
        {
          "internalType": "address",
          "name": "buyer",
          "type": "address"
        },
        {
          "internalType": "bool",
          "name": "isPurchased",
          "type": "bool"
        }
      ],
      "stateMutability": "view",
      "type": "function"
    },
    {
      "inputs": [
        {
          "internalType": "uint256",
          "name": "_id",
          "type": "uint256"
        }
      ],
      "name": "purchaseProduct",
      "outputs": [],
      "stateMutability": "payable",
      "type": "function"
    }
  ],
  "bytecode": "0x608060405260008055348015601357600080fd5b50610eb1806100236000396000f3fe60806040526004361061003f5760003560e01c806338e76a03146100445780637acc0b201461006057806389a1b523146100a2578063e0f6ef87146100cb575b600080fd5b61005e60048036038101906100599190610610565b6100f6565b005b34801561006c57600080fd5b5061008760048036038101906100829190610610565b610307565b60405161009996959493929190610759565b60405180910390f35b3480156100ae57600080fd5b506100c960048036038101906100c491906108f6565b610418565b005b3480156100d757600080fd5b506100e06105c0565b6040516100ed9190610952565b60405180910390f35b6000600160008381526020019081526020016000209050600081600001541180156101275750600054816000015411155b610166576040517f08c379a000000000000000000000000000000000000000000000000000000000815260040161015d906109b9565b60405180910390fd5b8060040160149054906101000a900460ff16156101b8576040517f08c379a00000000000000000000000000000000000000000000000000000000081526004016101af90610a25565b60405180910390fd5b80600201543410156101ff576040517f08c379a00000000000000000000000000000000000000000000000000000000081526004016101f690610a91565b60405180910390fd5b338160040160006101000a81548173ffffffffffffffffffffffffffffffffffffffff021916908373ffffffffffffffffffffffffffffffffffffffff16021790555060018160040160146101000a81548160ff0219169083151502179055508060030160009054906101000a900473ffffffffffffffffffffffffffffffffffffffff1673ffffffffffffffffffffffffffffffffffffffff166108fc349081150290604051600060405180830381858888f193505050501580156102c9573d6000803e3d6000fd5b507f9ad4ecfaf27ea0cbeebee0ed92fe15c8a84975f1e3d45ccfc526d7751dcf98ff82336040516102fb929190610ab1565b60405180910390a15050565b600160205280600052604060002060009150905080600001549080600101805461033090610b09565b80601f016020809104026020016040519081016040528092919081815260200182805461035c90610b09565b80156103a95780601f1061037e576101008083540402835291602001916103a9565b820191906000526020600020905b81548152906001019060200180831161038c57829003601f168201915b5050505050908060020154908060030160009054906101000a900473ffffffffffffffffffffffffffffffffffffffff16908060040160009054906101000a900473ffffffffffffffffffffffffffffffffffffffff16908060040160149054906101000a900460ff16905086565b60008081548092919061042a90610b69565b91905055506040518060c0016040528060005481526020018381526020018281526020013373ffffffffffffffffffffffffffffffffffffffff168152602001600073ffffffffffffffffffffffffffffffffffffffff1681526020016000151581525060016000805481526020019081526020016000206000820151816000015560208201518160010190816104c19190610d5d565b506040820151816002015560608201518160030160006101000a81548173ffffffffffffffffffffffffffffffffffffffff021916908373ffffffffffffffffffffffffffffffffffffffff16021790555060808201518160040160006101000a81548173ffffffffffffffffffffffffffffffffffffffff021916908373ffffffffffffffffffffffffffffffffffffffff16021790555060a08201518160040160146101000a81548160ff0219169083151502179055509050507f12f74df6387ef2d51265f7b8c12c28c83ba3a6a78ad217f3846ec9c2b1fad92f6000548383336040516105b49493929190610e2f565b60405180910390a15050565b60005481565b6000604051905090565b600080fd5b600080fd5b6000819050919050565b6105ed816105da565b81146105f857600080fd5b50565b60008135905061060a816105e4565b92915050565b600060208284031215610626576106256105d0565b5b6000610634848285016105fb565b91505092915050565b610646816105da565b82525050565b600081519050919050565b600082825260208201905092915050565b60005b8381101561068657808201518184015260208101905061066b565b60008484015250505050565b6000601f19601f8301169050919050565b60006106ae8261064c565b6106b88185610657565b93506106c8818560208601610668565b6106d181610692565b840191505092915050565b600073ffffffffffffffffffffffffffffffffffffffff82169050919050565b6000610707826106dc565b9050919050565b610717816106fc565b82525050565b6000610728826106dc565b9050919050565b6107388161071d565b82525050565b60008115159050919050565b6107538161073e565b82525050565b600060c08201905061076e600083018961063d565b818103602083015261078081886106a3565b905061078f604083018761063d565b61079c606083018661070e565b6107a9608083018561072f565b6107b660a083018461074a565b979650505050505050565b600080fd5b600080fd5b7f4e487b7100000000000000000000000000000000000000000000000000000000600052604160045260246000fd5b61080382610692565b810181811067ffffffffffffffff82111715610822576108216107cb565b5b80604052505050565b60006108356105c6565b905061084182826107fa565b919050565b600067ffffffffffffffff821115610861576108606107cb565b5b61086a82610692565b9050602081019050919050565b82818337600083830152505050565b600061089961089484610846565b61082b565b9050828152602081018484840111156108b5576108b46107c6565b5b6108c0848285610877565b509392505050565b600082601f8301126108dd576108dc6107c1565b5b81356108ed848260208601610886565b91505092915050565b6000806040838503121561090d5761090c6105d0565b5b600083013567ffffffffffffffff81111561092b5761092a6105d5565b5b610937858286016108c8565b9250506020610948858286016105fb565b9150509250929050565b6000602082019050610967600083018461063d565b92915050565b7f50726f6475637420646f6573206e6f742065786973742e000000000000000000600082015250565b60006109a3601783610657565b91506109ae8261096d565b602082019050919050565b600060208201905081810360008301526109d281610996565b9050919050565b7f50726f6475637420616c7265616479207075726368617365642e000000000000600082015250565b6000610a0f601a83610657565b9150610a1a826109d9565b602082019050919050565b60006020820190508181036000830152610a3e81610a02565b9050919050565b7f496e73756666696369656e742066756e64732e00000000000000000000000000600082015250565b6000610a7b601383610657565b9150610a8682610a45565b602082019050919050565b60006020820190508181036000830152610aaa81610a6e565b9050919050565b6000604082019050610ac6600083018561063d565b610ad3602083018461072f565b9392505050565b7f4e487b7100000000000000000000000000000000000000000000000000000000600052602260045260246000fd5b60006002820490506001821680610b2157607f821691505b602082108103610b3457610b33610ada565b5b50919050565b7f4e487b7100000000000000000000000000000000000000000000000000000000600052601160045260246000fd5b6000610b74826105da565b91507fffffffffffffffffffffffffffffffffffffffffffffffffffffffffffffffff8203610ba657610ba5610b3a565b5b600182019050919050565b60008190508160005260206000209050919050565b60006020601f8301049050919050565b600082821b905092915050565b600060088302610c137fffffffffffffffffffffffffffffffffffffffffffffffffffffffffffffffff82610bd6565b610c1d8683610bd6565b95508019841693508086168417925050509392505050565b6000819050919050565b6000610c5a610c55610c50846105da565b610c35565b6105da565b9050919050565b6000819050919050565b610c7483610c3f565b610c88610c8082610c61565b848454610be3565b825550505050565b600090565b610c9d610c90565b610ca8818484610c6b565b505050565b5b81811015610ccc57610cc1600082610c95565b600181019050610cae565b5050565b601f821115610d1157610ce281610bb1565b610ceb84610bc6565b81016020851015610cfa578190505b610d0e610d0685610bc6565b830182610cad565b50505b505050565b600082821c905092915050565b6000610d3460001984600802610d16565b1980831691505092915050565b6000610d4d8383610d23565b9150826002028217905092915050565b610d668261064c565b67ffffffffffffffff811115610d7f57610d7e6107cb565b5b610d898254610b09565b610d94828285610cd0565b600060209050601f831160018114610dc75760008415610db5578287015190505b610dbf8582610d41565b865550610e27565b601f198416610dd586610bb1565b60005b82811015610dfd57848901518255600182019150602085019450602081019050610dd8565b86831015610e1a5784890151610e16601f891682610d23565b8355505b6001600288020188555050505b505050505050565b6000608082019050610e44600083018761063d565b8181036020830152610e5681866106a3565b9050610e65604083018561063d565b610e72606083018461072f565b9594505050505056fea2646970667358221220d1511beb5e03d918e330d93e30a48b2d44032cb312aa802729ebb5678c9958a964736f6c634300081c0033",
  "linkReferences": {},
  "deployedLinkReferences": {}
}